{
  "contractName": "CryptoParkEntrance",
  "abi": [
    {
      "constant": true,
      "inputs": [],
      "name": "paused",
      "outputs": [
        {
          "name": "",
          "type": "bool"
        }
      ],
      "payable": false,
      "stateMutability": "view",
      "type": "function"
    },
    {
      "constant": true,
      "inputs": [],
      "name": "entranceTicketPrice",
      "outputs": [
        {
          "name": "",
          "type": "uint256"
        }
      ],
      "payable": false,
      "stateMutability": "view",
      "type": "function"
    },
    {
      "constant": true,
      "inputs": [],
      "name": "totalEntranceFee",
      "outputs": [
        {
          "name": "",
          "type": "uint256"
        }
      ],
      "payable": false,
      "stateMutability": "view",
      "type": "function"
    },
    {
      "constant": true,
      "inputs": [],
      "name": "owner",
      "outputs": [
        {
          "name": "",
          "type": "address"
        }
      ],
      "payable": false,
      "stateMutability": "view",
      "type": "function"
    },
    {
      "inputs": [],
      "payable": false,
      "stateMutability": "nonpayable",
      "type": "constructor"
    },
    {
      "anonymous": false,
      "inputs": [
        {
          "indexed": false,
          "name": "totalEntranceFee",
          "type": "uint256"
        }
      ],
      "name": "LogEntranceFee",
      "type": "event"
    },
    {
      "anonymous": false,
      "inputs": [
        {
          "indexed": false,
          "name": "accountAddress",
          "type": "address"
        },
        {
          "indexed": false,
          "name": "amount",
          "type": "uint256"
        }
      ],
      "name": "LogPayEntranceFee",
      "type": "event"
    },
    {
      "constant": true,
      "inputs": [
        {
          "name": "_owner",
          "type": "address"
        }
      ],
      "name": "getBalance",
      "outputs": [
        {
          "name": "",
          "type": "uint256"
        }
      ],
      "payable": false,
      "stateMutability": "view",
      "type": "function"
    },
    {
      "constant": true,
      "inputs": [],
      "name": "getEntranceFee",
      "outputs": [
        {
          "name": "",
          "type": "uint256"
        }
      ],
      "payable": false,
      "stateMutability": "view",
      "type": "function"
    },
    {
      "constant": true,
      "inputs": [],
      "name": "getContractAddress",
      "outputs": [
        {
          "name": "",
          "type": "address"
        }
      ],
      "payable": false,
      "stateMutability": "view",
      "type": "function"
    },
    {
      "constant": false,
      "inputs": [
        {
          "name": "numTickets",
          "type": "uint256"
        }
      ],
      "name": "calculateTotalEntranceFee",
      "outputs": [
        {
          "name": "",
          "type": "uint256"
        }
      ],
      "payable": false,
      "stateMutability": "nonpayable",
      "type": "function"
    },
    {
      "constant": false,
      "inputs": [
        {
          "name": "numTickets",
          "type": "uint256"
        }
      ],
      "name": "payEntranceFee",
      "outputs": [],
      "payable": true,
      "stateMutability": "payable",
      "type": "function"
    },
    {
      "constant": true,
      "inputs": [],
      "name": "keepTrackOfVisitorsInPark",
      "outputs": [
        {
          "name": "",
          "type": "uint256"
        }
      ],
      "payable": false,
      "stateMutability": "view",
      "type": "function"
    },
    {
      "constant": false,
      "inputs": [],
      "name": "removeFunds",
      "outputs": [],
      "payable": false,
      "stateMutability": "nonpayable",
      "type": "function"
    }
  ],
  "bytecode": "0x6080604052600560045534801561001557600080fd5b50336000806101000a81548173ffffffffffffffffffffffffffffffffffffffff021916908373ffffffffffffffffffffffffffffffffffffffff1602179055506064600160003373ffffffffffffffffffffffffffffffffffffffff1673ffffffffffffffffffffffffffffffffffffffff168152602001908152602001600020819055506000600260006101000a81548160ff0219169083151502179055506107c1806100c56000396000f3006080604052600436106100af576000357c0100000000000000000000000000000000000000000000000000000000900463ffffffff16806309bc33a7146100b457806332a2c5d0146100df5780635c975abb146101365780636f97e14014610165578063879f3726146101905780638da5cb5b146101bb578063a574804914610212578063abd40b2e14610253578063e9dc1b9b14610273578063f8b2cb4f1461029e578063feac51f5146102f5575b600080fd5b3480156100c057600080fd5b506100c961030c565b6040518082815260200191505060405180910390f35b3480156100eb57600080fd5b506100f4610316565b604051808273ffffffffffffffffffffffffffffffffffffffff1673ffffffffffffffffffffffffffffffffffffffff16815260200191505060405180910390f35b34801561014257600080fd5b5061014b61031e565b604051808215151515815260200191505060405180910390f35b34801561017157600080fd5b5061017a610331565b6040518082815260200191505060405180910390f35b34801561019c57600080fd5b506101a5610337565b6040518082815260200191505060405180910390f35b3480156101c757600080fd5b506101d061033d565b604051808273ffffffffffffffffffffffffffffffffffffffff1673ffffffffffffffffffffffffffffffffffffffff16815260200191505060405180910390f35b34801561021e57600080fd5b5061023d60048036038101908080359060200190929190505050610362565b6040518082815260200191505060405180910390f35b610271600480360381019080803590602001909291905050506103c2565b005b34801561027f57600080fd5b506102886105bf565b6040518082815260200191505060405180910390f35b3480156102aa57600080fd5b506102df600480360381019080803573ffffffffffffffffffffffffffffffffffffffff1690602001909291905050506105c9565b6040518082815260200191505060405180910390f35b34801561030157600080fd5b5061030a6106d6565b005b6000600454905090565b600030905090565b600260009054906101000a900460ff1681565b60045481565b60055481565b6000809054906101000a900473ffffffffffffffffffffffffffffffffffffffff1681565b60006103798260045461075790919063ffffffff16565b6005819055507f49626e737e8bece4b5e6f42fdae923813d747a8d443053a8afbe0b7f52c4bc346005546040518082815260200191505060405180910390a16005549050919050565b600160003373ffffffffffffffffffffffffffffffffffffffff1673ffffffffffffffffffffffffffffffffffffffff1681526020019081526020016000205434600160003373ffffffffffffffffffffffffffffffffffffffff1673ffffffffffffffffffffffffffffffffffffffff16815260200190815260200160002054011015151561045157600080fd5b600554600160003373ffffffffffffffffffffffffffffffffffffffff1673ffffffffffffffffffffffffffffffffffffffff16815260200190815260200160002054101515156104a157600080fd5b600554600160003373ffffffffffffffffffffffffffffffffffffffff1673ffffffffffffffffffffffffffffffffffffffff16815260200190815260200160002060008282540392505081905550600554600160003073ffffffffffffffffffffffffffffffffffffffff1673ffffffffffffffffffffffffffffffffffffffff16815260200190815260200160002060008282540192505081905550806003600082825401925050819055507f8edbe23e7a63a9facc41ce53edaf6340f2c9e9a3218146fe488455358eb59f9933600554604051808373ffffffffffffffffffffffffffffffffffffffff1673ffffffffffffffffffffffffffffffffffffffff1681526020018281526020019250505060405180910390a150565b6000600354905090565b60008060009054906101000a900473ffffffffffffffffffffffffffffffffffffffff1673ffffffffffffffffffffffffffffffffffffffff163373ffffffffffffffffffffffffffffffffffffffff1614151561068f576040517f08c379a00000000000000000000000000000000000000000000000000000000081526004018080602001828103825260128152602001807f4f6e6c79206f776e657220616c6c6f776564000000000000000000000000000081525060200191505060405180910390fd5b600160008373ffffffffffffffffffffffffffffffffffffffff1673ffffffffffffffffffffffffffffffffffffffff168152602001908152602001600020549050919050565b6000809054906101000a900473ffffffffffffffffffffffffffffffffffffffff1673ffffffffffffffffffffffffffffffffffffffff166108fc3073ffffffffffffffffffffffffffffffffffffffff16319081150290604051600060405180830381858888f19350505050158015610754573d6000803e3d6000fd5b50565b600080600084141561076c576000915061078e565b828402905082848281151561077d57fe5b0414151561078a57600080fd5b8091505b50929150505600a165627a7a72305820eb3f4e539533ebbf7efece39b31e36dd4d2c88decd09ba709fa6ec7539f05ac10029",
  "source": "pragma solidity ^0.4.23;\n\nimport \"./Owned.sol\";\nimport \"./SafeMath.sol\";\n\n/**\n* @title CryptoParkEntrance\n* @author Philip Montagu-Evans\n* This contract is used to pay for entrance fee\n*/\ncontract CryptoParkEntrance is Owned {\n    // SafeMath keyword using for using lib\n    using SafeMath for uint;\n\n    // Keeps track of current balances\n    // always be careful about overflow attacks with numbers\n    mapping(address => uint) private balanceOf;\n    bool public paused;\n\n    uint totalVisitorsInPark;\n    uint public entranceTicketPrice = 5;\n    uint public totalEntranceFee;\n\n\n    // uint public attractionFeePerVisitor;\n    // uint public totalAttractionFee;\n\n    constructor() public {\n        balanceOf[msg.sender] = 100;\n        paused = false;\n    }\n\n    event LogEntranceFee(uint totalEntranceFee);\n    event LogPayEntranceFee(address accountAddress, uint amount);\n    // event LogPause();\n    // event LogUnpause();\n\n  /**\n  * @notice Returns the balance of the callers address.\n  * Function onlyOwner makes sure only owner can call this.\n  * @param _owner The address to query the balance of.\n  * @return An uint representing the amount owned by the passed address.\n  */\n    function getBalance(address _owner) public view onlyOwner returns (uint) {\n        return balanceOf[_owner];\n    }\n\n\n    // gets the initial entrance fee\n    function getEntranceFee() public view returns (uint) {\n        return entranceTicketPrice;\n    }\n\n    // Used for displaying the contract address to the visitors\n    function getContractAddress() public view returns (address) {\n        return address(this);\n    }\n\n    /**\n    *@notice [ Security pattern ] for potential overflow using the SafeMath library.\n    * The result of this operation will be checked\n    * and an error will be thrown stopping the execution of this contract.\n    * This is just a way to show how a library can be implemented\n    */\n    function calculateTotalEntranceFee(uint numTickets) public returns (uint) {\n        totalEntranceFee = entranceTicketPrice.mul(numTickets);\n        emit LogEntranceFee(totalEntranceFee);\n        return totalEntranceFee;\n    }\n\n    /**\n    * @notice payEntranceFee sends transaction from owner to the park through Metamask\n    * @param numTickets to calculate\n    * @return The balance of the user after the deposit is made\n    */\n    function payEntranceFee(uint numTickets) public payable {\n        // Use 'require' to test user inputs, 'assert' for internal invariants\n        // Here we are making sure that there isn't an overflow issue\n        require((balanceOf[msg.sender] + msg.value) >= balanceOf[msg.sender]);\n        require(balanceOf[msg.sender] >= totalEntranceFee);\n\n        balanceOf[msg.sender] -= totalEntranceFee;\n        balanceOf[address(this)] += totalEntranceFee;\n        totalVisitorsInPark += numTickets;\n\n        //msg.value is automatically set to the amount of ether sent with that payable function.\n        emit LogPayEntranceFee(msg.sender, totalEntranceFee);\n        //visitors[numTickets] += msg.sender;\n    }\n\n    // keep track of how many people are in the park for security reasons\n    // we don't want to exceed capacity limit\n    // fortunately however, we don't need to check this since the park offer interstellar travel ;-)\n    function keepTrackOfVisitorsInPark() public view returns (uint) {\n        return totalVisitorsInPark;\n    }\n\n     // @dev circuit breaker\n     // fallback function that allows contract to accept ETH\n     // else Error: VM Exception while processing transaction: invalid opcode\n\n    // function () public whenNotPaused payable {}\n\n    // function pause() public onlyOwner whenNotPaused {\n    //     paused = true;\n    //     emit LogPause();\n    // }\n\n    // function unpause() public onlyOwner whenPaused {\n    //     paused = false;\n    //     emit LogUnpause();\n    // }\n\n    function removeFunds() public {\n        owner.transfer(address(this).balance);\n    }\n}",
  "sourcePath": "/Users/dalailama/Desktop/development/consensys/final-project/cryptogap/contracts/CryptoParkEntrance.sol",
  "compiler": {
    "name": "solc",
    "version": "0.4.24+commit.e67f0147.Emscripten.clang"
  },
  "schemaVersion": "2.0.1",
  "updatedAt": "2018-08-28T10:56:24.298Z"
}