{
  "contractName": "EntrancePayment",
  "abi": [
    {
      "constant": true,
      "inputs": [],
      "name": "paused",
      "outputs": [
        {
          "name": "",
          "type": "bool"
        }
      ],
      "payable": false,
      "stateMutability": "view",
      "type": "function"
    },
    {
      "constant": true,
      "inputs": [],
      "name": "entranceTicketPrice",
      "outputs": [
        {
          "name": "",
          "type": "uint256"
        }
      ],
      "payable": false,
      "stateMutability": "view",
      "type": "function"
    },
    {
      "constant": true,
      "inputs": [],
      "name": "totalEntranceFee",
      "outputs": [
        {
          "name": "",
          "type": "uint256"
        }
      ],
      "payable": false,
      "stateMutability": "view",
      "type": "function"
    },
    {
      "constant": true,
      "inputs": [],
      "name": "owner",
      "outputs": [
        {
          "name": "",
          "type": "address"
        }
      ],
      "payable": false,
      "stateMutability": "view",
      "type": "function"
    },
    {
      "inputs": [],
      "payable": false,
      "stateMutability": "nonpayable",
      "type": "constructor"
    },
    {
      "payable": true,
      "stateMutability": "payable",
      "type": "fallback"
    },
    {
      "anonymous": false,
      "inputs": [
        {
          "indexed": false,
          "name": "totalEntranceFee",
          "type": "uint256"
        }
      ],
      "name": "LogEntranceFee",
      "type": "event"
    },
    {
      "anonymous": false,
      "inputs": [
        {
          "indexed": false,
          "name": "accountAddress",
          "type": "address"
        },
        {
          "indexed": false,
          "name": "amount",
          "type": "uint256"
        }
      ],
      "name": "LogPayEntranceFee",
      "type": "event"
    },
    {
      "anonymous": false,
      "inputs": [],
      "name": "LogPause",
      "type": "event"
    },
    {
      "anonymous": false,
      "inputs": [],
      "name": "LogUnpause",
      "type": "event"
    },
    {
      "constant": true,
      "inputs": [
        {
          "name": "_owner",
          "type": "address"
        }
      ],
      "name": "getBalance",
      "outputs": [
        {
          "name": "",
          "type": "uint256"
        }
      ],
      "payable": false,
      "stateMutability": "view",
      "type": "function"
    },
    {
      "constant": true,
      "inputs": [],
      "name": "getEntranceFee",
      "outputs": [
        {
          "name": "",
          "type": "uint256"
        }
      ],
      "payable": false,
      "stateMutability": "view",
      "type": "function"
    },
    {
      "constant": true,
      "inputs": [],
      "name": "getContractAddress",
      "outputs": [
        {
          "name": "",
          "type": "address"
        }
      ],
      "payable": false,
      "stateMutability": "view",
      "type": "function"
    },
    {
      "constant": false,
      "inputs": [
        {
          "name": "numTickets",
          "type": "uint256"
        }
      ],
      "name": "calculateTotalEntranceFee",
      "outputs": [
        {
          "name": "",
          "type": "uint256"
        }
      ],
      "payable": false,
      "stateMutability": "nonpayable",
      "type": "function"
    },
    {
      "constant": false,
      "inputs": [
        {
          "name": "numTickets",
          "type": "uint256"
        }
      ],
      "name": "payEntranceFee",
      "outputs": [],
      "payable": true,
      "stateMutability": "payable",
      "type": "function"
    },
    {
      "constant": true,
      "inputs": [],
      "name": "keepTrackOfVisitorsInPark",
      "outputs": [
        {
          "name": "",
          "type": "uint256"
        }
      ],
      "payable": false,
      "stateMutability": "view",
      "type": "function"
    },
    {
      "constant": false,
      "inputs": [],
      "name": "pause",
      "outputs": [],
      "payable": false,
      "stateMutability": "nonpayable",
      "type": "function"
    },
    {
      "constant": false,
      "inputs": [],
      "name": "unpause",
      "outputs": [],
      "payable": false,
      "stateMutability": "nonpayable",
      "type": "function"
    },
    {
      "constant": false,
      "inputs": [],
      "name": "removeFunds",
      "outputs": [],
      "payable": false,
      "stateMutability": "nonpayable",
      "type": "function"
    }
  ],
  "bytecode": "0x6080604052600560045534801561001557600080fd5b50336000806101000a81548173ffffffffffffffffffffffffffffffffffffffff021916908373ffffffffffffffffffffffffffffffffffffffff1602179055506064600160003373ffffffffffffffffffffffffffffffffffffffff1673ffffffffffffffffffffffffffffffffffffffff168152602001908152602001600020819055506000600260006101000a81548160ff021916908315150217905550610a6d806100c56000396000f3006080604052600436106100c5576000357c0100000000000000000000000000000000000000000000000000000000900463ffffffff16806309bc33a7146100e357806332a2c5d01461010e5780633f4ba83a146101655780635c975abb1461017c5780636f97e140146101ab5780638456cb59146101d6578063879f3726146101ed5780638da5cb5b14610218578063a57480491461026f578063abd40b2e146102b0578063e9dc1b9b146102d0578063f8b2cb4f146102fb578063feac51f514610352575b600260009054906101000a900460ff161515156100e157600080fd5b005b3480156100ef57600080fd5b506100f8610369565b6040518082815260200191505060405180910390f35b34801561011a57600080fd5b50610123610373565b604051808273ffffffffffffffffffffffffffffffffffffffff1673ffffffffffffffffffffffffffffffffffffffff16815260200191505060405180910390f35b34801561017157600080fd5b5061017a61037b565b005b34801561018857600080fd5b506101916104a3565b604051808215151515815260200191505060405180910390f35b3480156101b757600080fd5b506101c06104b6565b6040518082815260200191505060405180910390f35b3480156101e257600080fd5b506101eb6104bc565b005b3480156101f957600080fd5b506102026105e5565b6040518082815260200191505060405180910390f35b34801561022457600080fd5b5061022d6105eb565b604051808273ffffffffffffffffffffffffffffffffffffffff1673ffffffffffffffffffffffffffffffffffffffff16815260200191505060405180910390f35b34801561027b57600080fd5b5061029a60048036038101908080359060200190929190505050610610565b6040518082815260200191505060405180910390f35b6102ce60048036038101908080359060200190929190505050610670565b005b3480156102dc57600080fd5b506102e561086b565b6040518082815260200191505060405180910390f35b34801561030757600080fd5b5061033c600480360381019080803573ffffffffffffffffffffffffffffffffffffffff169060200190929190505050610875565b6040518082815260200191505060405180910390f35b34801561035e57600080fd5b50610367610982565b005b6000600454905090565b600030905090565b6000809054906101000a900473ffffffffffffffffffffffffffffffffffffffff1673ffffffffffffffffffffffffffffffffffffffff163373ffffffffffffffffffffffffffffffffffffffff1614151561043f576040517f08c379a00000000000000000000000000000000000000000000000000000000081526004018080602001828103825260128152602001807f4f6e6c79206f776e657220616c6c6f776564000000000000000000000000000081525060200191505060405180910390fd5b600260009054906101000a900460ff16151561045a57600080fd5b6000600260006101000a81548160ff0219169083151502179055507f730c1faaa977b67dacf1e2451ef54556e04a07d577785ff79f6d31f73502efc960405160405180910390a1565b600260009054906101000a900460ff1681565b60045481565b6000809054906101000a900473ffffffffffffffffffffffffffffffffffffffff1673ffffffffffffffffffffffffffffffffffffffff163373ffffffffffffffffffffffffffffffffffffffff16141515610580576040517f08c379a00000000000000000000000000000000000000000000000000000000081526004018080602001828103825260128152602001807f4f6e6c79206f776e657220616c6c6f776564000000000000000000000000000081525060200191505060405180910390fd5b600260009054906101000a900460ff1615151561059c57600080fd5b6001600260006101000a81548160ff0219169083151502179055507f4b314b34e912fda7f95e7d23e9c8c95f82f0aff1984e4ce592a0b005f905562460405160405180910390a1565b60055481565b6000809054906101000a900473ffffffffffffffffffffffffffffffffffffffff1681565b600061062782600454610a0390919063ffffffff16565b6005819055507f49626e737e8bece4b5e6f42fdae923813d747a8d443053a8afbe0b7f52c4bc346005546040518082815260200191505060405180910390a16005549050919050565b600160003373ffffffffffffffffffffffffffffffffffffffff1673ffffffffffffffffffffffffffffffffffffffff1681526020019081526020016000205434600160003373ffffffffffffffffffffffffffffffffffffffff1673ffffffffffffffffffffffffffffffffffffffff1681526020019081526020016000205401101515156106ff57600080fd5b600554600160003373ffffffffffffffffffffffffffffffffffffffff1673ffffffffffffffffffffffffffffffffffffffff168152602001908152602001600020541015151561074f57600080fd5b600554600160003373ffffffffffffffffffffffffffffffffffffffff1673ffffffffffffffffffffffffffffffffffffffff16815260200190815260200160002060008282540392505081905550600554600160003073ffffffffffffffffffffffffffffffffffffffff1673ffffffffffffffffffffffffffffffffffffffff16815260200190815260200160002060008282540192505081905550806003600082825401925050819055507f8edbe23e7a63a9facc41ce53edaf6340f2c9e9a3218146fe488455358eb59f993334604051808373ffffffffffffffffffffffffffffffffffffffff1673ffffffffffffffffffffffffffffffffffffffff1681526020018281526020019250505060405180910390a150565b6000600354905090565b60008060009054906101000a900473ffffffffffffffffffffffffffffffffffffffff1673ffffffffffffffffffffffffffffffffffffffff163373ffffffffffffffffffffffffffffffffffffffff1614151561093b576040517f08c379a00000000000000000000000000000000000000000000000000000000081526004018080602001828103825260128152602001807f4f6e6c79206f776e657220616c6c6f776564000000000000000000000000000081525060200191505060405180910390fd5b600160008373ffffffffffffffffffffffffffffffffffffffff1673ffffffffffffffffffffffffffffffffffffffff168152602001908152602001600020549050919050565b6000809054906101000a900473ffffffffffffffffffffffffffffffffffffffff1673ffffffffffffffffffffffffffffffffffffffff166108fc3073ffffffffffffffffffffffffffffffffffffffff16319081150290604051600060405180830381858888f19350505050158015610a00573d6000803e3d6000fd5b50565b6000806000841415610a185760009150610a3a565b8284029050828482811515610a2957fe5b04141515610a3657600080fd5b8091505b50929150505600a165627a7a7230582068969eb401e7bb158c8ef6ef2fc8914c2194030b95c1dc6b7875313adc94cc260029",
  "source": "pragma solidity ^0.4.23;\n\nimport \"./Owned.sol\";\nimport \"./SafeMath.sol\";\n\n/**\n* @title EntrancePayment\n* @author Philip Montagu-Evans\n* This contract is used to pay for entrance fee\n*/\ncontract EntrancePayment is Owned {\n    // SafeMath keyword using for using lib\n    using SafeMath for uint;\n\n    // Keeps track of current balances\n    // always be careful about overflow attacks with numbers\n    mapping(address => uint) private balanceOf;\n\n    bool public paused;\n    uint totalVisitorsInPark;\n    uint public entranceTicketPrice = 5;\n    uint public totalEntranceFee;\n\n\n\n  modifier whenNotPaused() {\n    require(!paused);\n    _;\n  }\n  modifier whenPaused() {\n    require(paused);\n    _;\n  }\n\n    // uint public attractionFeePerVisitor;\n    // uint public totalAttractionFee;\n\n    constructor() public {\n        balanceOf[msg.sender] = 100;\n        paused = false;\n    }\n\n    event LogEntranceFee(uint totalEntranceFee);\n    event LogPayEntranceFee(address accountAddress, uint amount);\n    event LogPause();\n    event LogUnpause();\n\n  /**\n  * @notice Returns the balance of the callers address.\n  * Function onlyOwner makes sure only owner can call this.\n  * @param _owner The address to query the balance of.\n  * @return An uint representing the amount owned by the passed address.\n  */\n    function getBalance(address _owner) public view onlyOwner returns (uint) {\n        return balanceOf[_owner];\n    }\n\n\n    // gets the initial entrance fee\n    function getEntranceFee() public view returns (uint) {\n        return entranceTicketPrice;\n    }\n\n    // Used for displaying the contract address to the visitors\n    function getContractAddress() public view returns (address) {\n        return address(this);\n    }\n\n    /**\n    *@notice [ Security pattern ] for potential overflow using the SafeMath library.\n    * The result of this operation will be checked\n    * and an error will be thrown stopping the execution of this contract.\n    * This is just a way to show how a library can be implemented\n    */\n    function calculateTotalEntranceFee(uint numTickets) public returns (uint) {\n        totalEntranceFee = entranceTicketPrice.mul(numTickets);\n        emit LogEntranceFee(totalEntranceFee);\n        return totalEntranceFee;\n    }\n\n    /**\n    * @notice payEntranceFee sends transaction from owner to the park through Metamask\n    * @param numTickets to calculate\n    * @return The balance of the user after the deposit is made\n    */\n    function payEntranceFee(uint numTickets) public payable {\n        // Use 'require' to test user inputs, 'assert' for internal invariants\n        // Here we are making sure that there isn't an overflow issue\n        require((balanceOf[msg.sender] + msg.value) >= balanceOf[msg.sender]);\n        require(balanceOf[msg.sender] >= totalEntranceFee);\n\n        balanceOf[msg.sender] -= totalEntranceFee;\n        balanceOf[address(this)] += totalEntranceFee;\n        totalVisitorsInPark += numTickets;\n\n        //msg.value is automatically set to the amount of ether sent with that payable function.\n        emit LogPayEntranceFee(msg.sender, msg.value);\n        //visitors[numTickets] += msg.sender;\n    }\n\n    // keep track of how many people are in the park for security reasons\n    // we don't want to exceed capacity limit\n    // fortunately however, we don't need to check this since the park offer interstellar travel ;-)\n    function keepTrackOfVisitorsInPark() public view returns (uint) {\n        return totalVisitorsInPark;\n    }\n\n     // @dev circuit breaker\n     // fallback function that allows contract to accept ETH\n     // else Error: VM Exception while processing transaction: invalid opcode\n    function () public whenNotPaused payable {}\n\n    function pause() public onlyOwner whenNotPaused {\n        paused = true;\n        emit LogPause();\n    }\n\n    function unpause() public onlyOwner whenPaused {\n        paused = false;\n        emit LogUnpause();\n    }\n\n    function removeFunds() public {\n        owner.transfer(address(this).balance);\n    }\n}",
  "sourcePath": "/Users/dalailama/Desktop/development/consensys/final-project/cryptogap/contracts/CryptoParkEntrance.sol",
  "compiler": {
    "name": "solc",
    "version": "0.4.24+commit.e67f0147.Emscripten.clang"
  },
  "schemaVersion": "2.0.1",
  "updatedAt": "2018-08-28T07:49:32.887Z"
}